:1000000028C04CC005C24AC049C0B8C147C046C09C
:1000100045C044C043C042C075C240C03FC000009C
:10002000000037000000000036000000000038002B
:10003000020202020202020202020102040810206D
:1000400020041008010200000400000000009A02D1
:10005000910211241FBECFE5D1E0DEBFCDBF20E06D
:10006000AEE8B0E001C01D92AD3FB207E1F710E08D
:10007000A0E6B0E0E2E0FEE002C005900D92AE38EE
:10008000B107D9F710E0C8E2D0E003C02197FE0124
:1000900050D4C732D107D1F7F3D2A7C6B1CFCF9290
:1000A000DF92EF92FF920F931F93CF93DF936C0138
:1000B0007A018B01C0E0D0E0CE15DF0589F0D801D0
:1000C0006D918D01D601ED91FC910190F081E02DB3
:1000D000C6010995892B11F47E0102C02196ECCF4F
:1000E000C701DF91CF911F910F91FF90EF90DF90AB
:1000F000CF90089590E0FC01EC5BFF4F3491FC0140
:10010000E65CFF4F2491FC01E05DFF4FE491EE239C
:1001100039F1332399F0323071F028F4313071F431
:100120008AB58F770AC0333011F0343039F48CB58A
:100130008F7D8CBD03C08AB58F7D8ABDF0E0EE0F48
:10014000FF1FE65DFF4FA591B4918FB7F894EC9136
:10015000611103C020952E2301C02E2B2C938FBF3D
:1001600008952091D3003091D4002817390771F4F5
:100170009091D2008091D100981741F0E091D20087
:10018000F0E0EF56FF4F808190E008958FEF9FEFF2
:10019000089508951F93CF93DF93DC015C962D9112
:1001A0003C915D972115310539F481E090E013967B
:1001B0009C938E9312973DC05196ED91FC9152976E
:1001C00050969C915097892F80951FB75E964C91C1
:1001D0005E9741FB772770F941FD6095F894408167
:1001E000772311F0492B01C048234083E90121976F
:1001F000F1F748E0508160FF02C0592B01C058233D
:100200005083E9012197F1F76695415099F77723DB
:1002100021F090818923808303C08081982B908373
:100220001FBF5C968D919C915D970197F1F721E03E
:1002300030E0C901DF91CF911F9108952091D30043
:100240003091D4002817390769F48091D1002091AA
:10025000D20090E0805C9F4F821B910960E470E0C7
:1002600041D3089580E090E008952091D30030912B
:10027000D40028173907B9F49091D2008091D100A9
:10028000981789F0E091D200F0E0EF56FF4F80819F
:100290002091D20030E02F5F3F4F2F733327209300
:1002A000D20090E008958FEF9FEF0895E091D30082
:1002B000F091D400E817F90769F4A389B4899C91F7
:1002C0008589809589238C931092D4001092D30055
:1002D00081E0089580E00895379885B7877E806132
:1002E00085BF85B7806285BF85B7806285BF8895E9
:1002F00085B78F7D85BF85B78F7D85BF379A089578
:10030000009761F0FC0101900020E9F73197AF01FF
:10031000481B590BBC018EED90E0C1CE80E090E00F
:1003200008950F931F93CF93DF931F92CDB7DEB73E
:10033000682F85E790E06983E3DF69818EED90E0C7
:1003400029DF8CE890E0DCDFC7DF18E402E007B9C2
:10035000369A3699FECF84B125B190E0922B1816CB
:1003600019061CF4B9DF115091F78AE790E00F905D
:10037000DF91CF911F910F91C3CFFFD31F920F92A7
:100380000FB60F9211242F933F938F939F93AF93A8
:10039000BF938091DA009091DB00A091DC00B091D6
:1003A000DD003091D90026E0230F2D3720F402968E
:1003B000A11DB11D05C029E8230F0396A11DB11D84
:1003C0002093D9008093DA009093DB00A093DC00A7
:1003D000B093DD008091D5009091D600A091D70018
:1003E000B091D8000196A11DB11D8093D5009093C6
:1003F000D600A093D700B093D800BF91AF919F9142
:100400008F913F912F910F900FBE0F901F901895D5
:100410001F920F920FB60F9211242F933F934F9379
:100420005F936F937F938F939F93AF93BF93EF935C
:10043000FF93E091D300F091D400309709F451C0BC
:10044000968DA685B785858591FF04C09C918923EB
:1004500029F447C09C91892309F043C0A389B4893A
:100460009C918589809589238C93868997890197AA
:10047000F1F7608D718DA685B785558538E020E050
:10048000CB010197F1F7822F90E095958795282F62
:100490004C91452309F02068315091F7868D81FDFC
:1004A00020958091D10090E001968F73992730912B
:1004B000D200381749F0A091D100B0E0AF56BF4F3D
:1004C0002C938093D10003C0868D8160868F828DAE
:1004D000938D0197F1F7A389B4899C918589892B24
:1004E0008C93FF91EF91BF91AF919F918F917F91ED
:1004F0006F915F914F913F912F910F900FBE0F9091
:100500001F9018951F920F920FB60F9211248F9380
:1005100081E0809360008F910F900FBE0F901F902D
:10052000189589E690E09093DF008093DE008EEDD1
:1005300090E0BCCE0F931F93CF93DF931092E10016
:100540001092E00088EE93E0A0E0B0E08093E2003B
:100550009093E300A093E400B093E50089E690E077
:100560009093DF008093DE001092F5001092F4006B
:100570001092F7001092F6001092F9001092F80015
:100580001092FB001092FA006091FC006E7F6D7F6C
:100590006093FC006695617081E06827ABDDEBE35A
:1005A000F0E02491E1E3F0E08491882399F090E079
:1005B000880F991FFC01E25EFF4FA591B491FC01E9
:1005C000E65DFF4F859194918FB7F894EC91E22B03
:1005D000EC938FBFEBE3F0E0E491E093EE00E1E316
:1005E000F0E0E491F0E0EE0FFF1FE65DFF4F859134
:1005F00094919093F0008093EF000AE310E0F801EB
:100600002491C0E3D0E0FE0184918823C9F090E0FA
:10061000880F991FFC01E25EFF4FA591B491865DA2
:100620009F4FFC01459154913FB7F8949C91822FC4
:10063000809598239C93FA019081892380833FBF02
:100640008091FC0081FD03C061E080E053DD1092E9
:10065000EA00F80104910093EB00FE01C491EC2F35
:10066000F0E0EE0FFF1FEC5DFF4F859194919093AA
:10067000ED008093EC00DF91CF911F910F910895D1
:1006800078948AB582608ABD8AB581608ABD83B755
:10069000826083BF83B7816083BF89B7826089BF6F
:1006A00080B7826080BF80B7816080BF329A319A04
:1006B0003098379A85B7846885BF479ABA98C29AA6
:1006C0001092F9001092F8001092F7001092F600C4
:1006D0001092F5001092F4008DEC90E09093FB00E6
:1006E0008093FA003091EA00353020F545E550E07E
:1006F0005093F5004093F4004BEC50E05093F7001A
:100700004093F60040E950E05093F9004093F80020
:100710002BB720622BBF45E350E05093F20040938B
:10072000F10021E001C0220F3A95EAF72093F3008F
:100730000197F1F78091F8009091F900892B19F158
:100740008091D3009091D40020E08E3D9207D9F0A3
:10075000009709F0ABDD8091FC008E7F8093FC0058
:100760001092D1001092D2008EED90E09093D400C0
:100770008093D300E091F100F091F200908180919C
:10078000F300892B80838FE790E0BADD84B7877F01
:1007900084BF81B5886181BD85E181BD81B58064FB
:1007A00081BD9ADD84E890E0ABDD6EE18EED90E0F6
:1007B000F1DC8CE890E0A4DD84B7877F84BF81B54D
:1007C000886181BD83E181BD81B5806481BD84DDA7
:1007D00088E890E095DD80DD8AE790E091DD80E0BB
:1007E00090E01FD29093900080938F00BC0180E036
:1007F00090E0611571058105910509F009D26091BC
:100800008F00709190006F5F7F4F80E090E00DD27D
:10081000CAE0D0E080E3882E912CA12CB12C95E188
:10082000492E512C612C712C27E8322E0CE111E05D
:1008300053DD80918E0081111AC0B29906C0E4D1B7
:10084000A301920112D2862F6CDDDED120EC32E1C1
:1008500040E050E00AD2613071058105910539F41C
:10086000D3D1A501940101D285E1860F5ADD2097ED
:10087000B9F580B58E7F80BD36B807B98FEC97E0AB
:100880000197F1F700C00000369A349BFECF349AEE
:1008900064B175B180E090E0BED09B01AC016DEC1D
:1008A0007CEC8CE894E44FD06B017C0123E333E3D0
:1008B00043E850E444D018167CF02AE939E949E7C6
:1008C00050E4C701B6013BD018161CF010938E00FF
:1008D00005C086E426DD02C010928E00C0E9D1E09A
:1008E0002197A6CF97FB072E16F4009406D077FD2C
:1008F00008D00BD007FC05D03EF4909581959F4F12
:100900000895709561957F4F0895AA1BBB1B51E117
:1009100007C0AA1FBB1FA617B70710F0A61BB70B6F
:10092000881F991F5A95A9F780959095BC01CD0114
:100930000895EE0FFF1F0590F491E02D0994A8D0C3
:1009400008F481E008950CD0DEC0D6D040F0CDD0C0
:1009500030F021F45F3F19F0BFC0511108C1C2C08F
:10096000E3D098F39923C9F35523B1F3951B550BA5
:10097000BB27AA2762177307840738F09F5F5F4F72
:10098000220F331F441FAA1FA9F333D00E2E3AF0B3
:10099000E0E830D091505040E695001CCAF729D0CD
:1009A000FE2F27D0660F771F881FBB1F261737071C
:1009B0004807AB07B0E809F0BB0B802DBF01FF274C
:1009C00093585F4F2AF09E3F510568F085C0CFC015
:1009D0005F3FECF3983EDCF3869577956795B79586
:1009E000F7959F5FC9F7880F911D9695879597F9A1
:1009F0000895E1E0660F771F881FBB1F621773071A
:100A00008407BA0720F0621B730B840BBA0BEE1F2E
:100A100088F7E0950895E89409C097FB3EF4909517
:100A20008095709561957F4F8F4F9F4F9923A9F0C7
:100A3000F92F96E9BB279395F69587957795679556
:100A4000B795F111F8CFFAF4BB0F11F460FF1BC09A
:100A50006F5F7F4F8F4F9F4F16C0882311F096E92D
:100A600011C0772321F09EE8872F762F05C06623DB
:100A700071F096E8862F70E060E02AF09A95660F94
:100A8000771F881FDAF7880F9695879597F908954D
:100A9000990F0008550FAA0BE0E8FEEF161617068F
:100AA000E807F907C0F012161306E407F50798F0F7
:100AB000621B730B840B950B39F40A2661F0232B10
:100AC000242B252B21F408950A2609F4A140A6958C
:100AD0008FEF811D811D089597F99F6780E870E071
:100AE00060E008959FEF80EC089500240A941616A4
:100AF000170618060906089500240A94121613060C
:100B0000140605060895092E0394000C11F4882399
:100B100052F0BB0F40F4BF2B11F460FF04C06F5FB5
:100B20007F4F8F4F9F4F089557FD9058440F551F8B
:100B300059F05F3F71F04795880F97FB991F61F05F
:100B40009F3F79F087950895121613061406551FD6
:100B5000F2CF4695F1DF08C0161617061806991F42
:100B6000F1CF86957105610508940895E894BB2737
:100B700066277727CB0197F9089581E090E0F894F4
:100B800034C1A0E0B0E0E6ECF5E0AEC0EC01688175
:100B900079818A819B81611571058105910521F417
:100BA00064E279ED8BE597E02DE133EF41E050E031
:100BB0005CD049015A0127EA31E440E050E071D0AD
:100BC00069017A01C501B4012CEE34EF4FEF5FEFFC
:100BD00068D0022F132F9A01D701C601800F911FF1
:100BE000A21FB31FB7FF03C00197A109B0488883B4
:100BF0009983AA83BB83BC01CD019F77CDB7DEB7B4
:100C0000ECE08EC0BEDF089581E690E0BADF089583
:100C1000609361007093620080936300909364001E
:100C20000895A8E1B0E042E005C011D0272F10C020
:100C3000DC01862FE82FE199FECF1FBA05C0EEBB7D
:100C4000E09AE3950DB20D924150C8F70895262F12
:100C5000E199FECF1CBA1FBA8EBB2DBB0FB6F8941C
:100C6000E29AE19A0FBE01960895052E97FB16F4BD
:100C700000940FD057FD05D068D007FC02D046F491
:100C800008C050954095309521953F4F4F4F5F4F8D
:100C9000089590958095709561957F4F8F4F9F4FE8
:100CA000089568940013E894A0E0B0E0E9E5F6E068
:100CB0001DC0EFEFE7F959016A015E23550FEE08F9
:100CC000FE2C87019B01AC019E23990F660B762FAA
:100CD000CB015DD0CDB7DEB7EAE024C02F923F92C2
:100CE0004F925F926F927F928F929F92AF92BF923C
:100CF000CF92DF92EF92FF920F931F93CF93DF93E8
:100D0000CDB7DEB7CA1BDB0B0FB6F894DEBF0FBE44
:100D1000CDBF09942A88398848885F846E847D8491
:100D20008C849B84AA84B984C884DF80EE80FD8093
:100D30000C811B81AA81B981CE0FD11D0FB6F89409
:100D4000DEBF0FBECDBFED010895A1E21A2EAA1B92
:100D5000BB1BFD010DC0AA1FBB1FEE1FFF1FA2176B
:100D6000B307E407F50720F0A21BB30BE40BF50B68
:100D7000661F771F881F991F1A9469F760957095F1
:100D8000809590959B01AC01BD01CF010895DF9343
:100D9000CF939F92A0E49A2E0024D001E001F001AD
:100DA00016950795F794E794D794C794B794A794AA
:100DB00048F41068A20FB31FC41FD51FE61FF71F0A
:100DC000081E191E220F331F441F551F661F771F51
:100DD000881F991F9A9421F79D01AE01BF01C001A0
:100DE00011249F90CF91DF91089510E0C8E2D0E0E8
:100DF00003C0FE019EDD2196C932D107D1F7F894D8
:020E0000FFCF22
:100E0200010100000000000000CA004F001E013571
:100E120001B100C9007E040301007E020AEF007ED8
:0E0E2200020CEF007E0306007E031104EF00B9
:00000001FF
