:1000000028C04CC0F2C14AC049C0A5C147C046C0C3
:1000100045C044C043C042C012C340C03FC00000FE
:10002000000037000000000036000000000038002B
:10003000020202020202020202020102040810206D
:1000400020041008010200000400000000007902F2
:100050006F0211241FBECFE5D1E0DEBFCDBF10E09F
:10006000A0E6B0E0EAE5FEE002C005900D92AE38F1
:10007000B107D9F720E0AEE8B0E001C01D92AF3F74
:10008000B207E1F710E0C8E2D0E003C02197FE011B
:10009000D2D6C732D107D1F7E1D2D3C6B1CFA0E0D3
:1000A000B0E0E4E5F0E005C56C017A018B01C0E049
:1000B000D0E0CE15DF0589F0D8016D918D01D60114
:1000C000ED91FC910190F081E02DC6010995892BFD
:1000D00011F47E0102C02196ECCFC701CDB7DEB787
:1000E000E8E003C590E0FC01EC5BFF4F3491FC01BC
:1000F000E65CFF4F2491FC01E05DFF4FE491EE23AD
:1001000039F1332399F0323071F028F4313071F441
:100110008AB58F770AC0333011F0343039F48CB59A
:100120008F7D8CBD03C08AB58F7D8ABDF0E0EE0F58
:10013000FF1FE65DFF4FA591B4918FB7F894EC9146
:10014000611103C020952E2301C02E2B2C938FBF4D
:1001500008952091D5003091D6002817390771F401
:100160009091D4008091D300981741F0E091D40091
:10017000F0E0ED56FF4F808190E008958FEF9FEF04
:10018000089508951F93CF93DF93DC015C962D9122
:100190003C915D972115310539F481E090E013968B
:1001A0009C938E9312973DC05196ED91FC9152977E
:1001B00050969C915097892F80951FB75E964C91D1
:1001C0005E9741FB772770F941FD6095F894408177
:1001D000772311F0492B01C048234083E90121977F
:1001E000F1F748E0508160FF02C0592B01C058234D
:1001F0005083E9012197F1F76695415099F77723EC
:1002000021F090818923808303C08081982B908383
:100210001FBF5C968D919C915D970197F1F721E04E
:1002200030E0C901DF91CF911F9108952091D50051
:100230003091D6002817390769F48091D3002091B6
:10024000D40090E0805C9F4F821B910960E470E0D5
:10025000CBD5089580E090E008952091D5003091AD
:10026000D60028173907B9F49091D4008091D300B3
:10027000981789F0E091D400F0E0ED56FF4F8081AF
:100280002091D40030E02F5F3F4F2F73332720930E
:10029000D40090E008958FEF9FEF0895E091D5008E
:1002A000F091D600E817F90769F4A389B4899C9105
:1002B0008589809589238C931092D6001092D50061
:1002C00081E0089580E00895379885B7877E806142
:1002D00085BF85B7806285BF889585B78F7D85BFCF
:1002E000379A0895009769F0BC01FC010190002045
:1002F000E9F73197AF01481B590B80EE90E0CFDE54
:10030000089580E090E00895A1E0B0E0E9E8F1E030
:10031000D5C38983D9DF85E690E0E4DF80EE90E005
:10032000698130DF8CE790E0DDDFCEDF12E017B9C6
:10033000369A3699FECF84B125B190E0922B1816EB
:10034000190614F4C1DFF3CF8AE690E0CBDFBCDFFF
:100350002196E3E0CFC31F920F920FB60F921124A4
:100360002F933F938F939F93AF93BF938091DC0024
:100370009091DD00A091DE00B091DF003091DB00B4
:1003800026E0230F2D3720F40296A11DB11D05C0D4
:1003900029E8230F0396A11DB11D2093DB00809354
:1003A000DC009093DD00A093DE00B093DF0080912D
:1003B000D7009091D800A091D900B091DA000196B1
:1003C000A11DB11D8093D7009093D800A093D900B0
:1003D000B093DA00BF91AF919F918F913F912F9190
:1003E0000F900FBE0F901F9018951F920F920FB68F
:1003F0000F9211242F933F934F935F936F937F93AB
:100400008F939F93AF93BF93EF93FF93E091D500AA
:10041000F091D600309709F451C0968DA685B78526
:10042000858591FF04C09C91892329F447C09C9144
:10043000892309F043C0A389B4899C91858980955B
:1004400089238C93868997890197F1F7608D718D47
:10045000A685B785558538E020E0CB010197F1F7F7
:10046000822F90E095958795282F4C91452309F090
:100470002068315091F7868D81FD20958091D300C1
:1004800090E001968F7399273091D400381749F086
:10049000A091D300B0E0AD56BF4F2C938093D30012
:1004A00003C0868D8160868F828D938D0197F1F7D1
:1004B000A389B4899C918589892B8C93FF91EF91B5
:1004C000BF91AF919F918F917F916F915F914F916C
:1004D0003F912F910F900FBE0F901F90189582E8BB
:1004E00090E09093E1008093E00080EE90E0D6DE13
:1004F00008950F931F93CF93DF931092E300109210
:10050000E20088EE93E0A0E0B0E08093E4009093F6
:10051000E500A093E600B093E70082E890E09093B6
:10052000E1008093E0001092F7001092F600109224
:10053000F9001092F8001092FB001092FA0010924D
:10054000FD001092FC006091FE006E7F6D7F609355
:10055000FE006695617081E06827C4DDEBE3F0E0A2
:100560002491E1E3F0E08491882399F090E0880FF2
:10057000991FFC01E25EFF4FA591B491FC01E65D7D
:10058000FF4F859194918FB7F894EC91E22BEC9307
:100590008FBFEBE3F0E0E491E093F000E1E3F0E003
:1005A000E491F0E0EE0FFF1FE65DFF4F859194911F
:1005B0009093F2008093F1000AE310E0F801249197
:1005C000C0E3D0E0FE0184918823C9F090E0880F59
:1005D000991FFC01E25EFF4FA591B491865D9F4F8C
:1005E000FC01459154913FB7F8949C91822F8095DE
:1005F00098239C93FA019081892380833FBF809147
:10060000FE0081FD03C080E061E06CDD1092EC0033
:10061000F80104910093ED00FE01C491EC2FF0E08D
:10062000EE0FFF1FEC5DFF4F859194919093EF00CB
:100630008093EE00DF91CF911F910F9108951F924B
:100640000F920FB60F9211248F9381E08093640074
:100650008F910F900FBE0F901F901895A0E0B0E003
:10066000E3E3F3E01DC278948AB582608ABD8AB55F
:1006700081608ABD83B7826083BF83B7816083BF97
:1006800089B7826089BF80B7826080BF80B7816090
:1006900080BF329A319A3098379A85B7846885BF7F
:1006A000479ABA98C29A1092FB001092FA001092E0
:1006B000F9001092F8001092F7001092F6008DECFD
:1006C00090E09093FD008093FC003091EC00353079
:1006D00020F545E550E05093F7004093F6004BECD1
:1006E00050E05093F9004093F80040E950E05093F7
:1006F000FB004093FA002BB720622BBF45E350E08C
:100700005093F4004093F30021E001C0220F3A958A
:10071000EAF72093F5000197F1F78091FA009091A4
:10072000FB00892B19F18091D5009091D60020E033
:10073000803E9207D9F0009709F0B0DD8091FE006D
:100740008E7F8093FE001092D3001092D40080EE32
:1007500090E09093D6008093D500E091F300F09163
:10076000F40090818091F500892B80838FE690E0E2
:10077000B9DD84B7877F84BF81B5886181BD85E19C
:1007800081BD81B5806481BD9FDD84E790E0AADDF5
:1007900080EE90E064E1F6DC8CE790E0A3DD84B7C6
:1007A000877F84BF81B5886181BD83E181BD81B5CB
:1007B000806481BD89DD88E790E094DD85DD8AE68F
:1007C00090E090DD80E090E00DD1909392008093D6
:1007D000910002978C3F910508F0A1C0C091910053
:1007E000D0919200CE01FED09093900080938F0024
:1007F0008538934070F01092900010928F00BE01E7
:100800006E5F7F4F709392006093910080E090E064
:10081000EDD060918F007091900080E090E06115C4
:1008200071058105910509F0D4D060918F00709118
:1008300090006F5F7F4F7093900060938F00809166
:10084000910090919200D2D0CAE0D0E08BE7882E40
:10085000912CA12CB12C99E2492E512C612C712C98
:1008600027E8322E0CE111E080918E0081111CC02E
:10087000B29906C0AAD0A3019201D8D0862F11C088
:10088000A4D020EC32E140E050E0D0D061307105DE
:100890008105910541F499D0A5019401C7D089E261
:1008A000860F32DD01C010DD2097B9F580B58E7F4F
:1008B00080BD36B807B98FEC97E00197F1F700C01B
:1008C0000000369A349BFECF349A64B175B180E053
:1008D00090E0D8D19B01AC016DEC7CEC8CE894E409
:1008E00069D16B017C0123E333E343E850E45ED13B
:1008F00018167CF0C701B6012AE939E949E750E446
:1009000055D118161CF010938E0005C084EAFCDC4B
:1009100002C010928E00C0E9D1E02197A5CF82E0FD
:1009200090E0909392008093910080E090E062E0EC
:1009300070E05CD0809191009091920060E070E056
:1009400055D04CCFA0E0B0E0E7EAF4E0AEC0EC0157
:10095000688179818A819B81611571058105910585
:1009600021F464E279ED8BE597E02DE133EF41E08E
:1009700050E05CD049015A0127EA31E440E050E000
:1009800071D069017A01C501B4012CEE34EF4FEF4B
:100990005FEF68D0022F132F9A01D701C601800F95
:1009A000911FA21FB31FB7FF03C00197A109B04851
:1009B00088839983AA83BB83BC01CD019F77CDB780
:1009C000DEB7ECE08EC0BEDF089580E690E0BADFCF
:1009D000089560936000709361008093620090932B
:1009E00063000895A8E1B0E042E005C011D0272FD0
:1009F00010C0DC01862FE82FE199FECF1FBA05C099
:100A0000EEBBE09AE3950DB20D924150C8F7089500
:100A1000262FE199FECF1CBA1FBA8EBB2DBB0FB695
:100A2000F894E29AE19A0FBE01960895052E97FB7D
:100A300016F400940FD057FD05D068D007FC02D003
:100A400046F408C050954095309521953F4F4F4F43
:100A50005F4F089590958095709561957F4F8F4F6A
:100A60009F4F089568940013E894A0E0B0E0EAE393
:100A7000F5E01DC0EFEFE7F959016A015E23550F5C
:100A8000EE08FE2C87019B01AC019E23990F660B9B
:100A9000762FCB015DD0CDB7DEB7EAE024C02F9230
:100AA0003F924F925F926F927F928F929F92AF92FE
:100AB000BF92CF92DF92EF92FF920F931F93CF934B
:100AC000DF93CDB7DEB7CA1BDB0B0FB6F894DEBFE2
:100AD0000FBECDBF09942A88398848885F846E8408
:100AE0007D848C849B84AA84B984C884DF80EE8052
:100AF000FD800C811B81AA81B981CE0FD11D0FB65B
:100B0000F894DEBF0FBECDBFED010895A1E21A2E0D
:100B1000AA1BBB1BFD010DC0AA1FBB1FEE1FFF1FA1
:100B2000A217B307E407F50720F0A21BB30BE40BF1
:100B3000F50B661F771F881F991F1A9469F7609538
:100B40007095809590959B01AC01BD01CF010895F2
:100B5000DF93CF939F92A0E49A2E0024D001E0016E
:100B6000F00116950795F794E794D794C794B79436
:100B7000A79448F41068A20FB31FC41FD51FE61F27
:100B8000F71F081E191E220F331F441F551F661F13
:100B9000771F881F991F9A9421F79D01AE01BF010D
:100BA000C00111249F90CF91DF910895A8D008F43F
:100BB00081E008950CD0DEC0D6D040F0CDD030F02A
:100BC00021F45F3F19F0BFC0511108C1C2C0E3D08A
:100BD00098F39923C9F35523B1F3951B550BBB2704
:100BE000AA2762177307840738F09F5F5F4F220FB1
:100BF000331F441FAA1FA9F333D00E2E3AF0E0E8AA
:100C000030D091505040E695001CCAF729D0FE2FF5
:100C100027D0660F771F881FBB1F26173707480787
:100C2000AB07B0E809F0BB0B802DBF01FF2793583D
:100C30005F4F2AF09E3F510568F085C0CFC05F3FEF
:100C4000ECF3983EDCF3869577956795B795F79525
:100C50009F5FC9F7880F911D9695879597F908951D
:100C6000E1E0660F771F881FBB1F621773078407B9
:100C7000BA0720F0621B730B840BBA0BEE1F88F7C8
:100C8000E0950895E89409C097FB3EF4909580950F
:100C9000709561957F4F8F4F9F4F9923A9F0F92F42
:100CA00096E9BB279395F695879577956795B795C0
:100CB000F111F8CFFAF4BB0F11F460FF1BC06F5FA6
:100CC0007F4F8F4F9F4F16C0882311F096E911C0B8
:100CD000772321F09EE8872F762F05C0662371F0D9
:100CE00096E8862F70E060E02AF09A95660F771FED
:100CF000881FDAF7880F9695879597F90895990FC9
:100D00000008550FAA0BE0E8FEEF16161706E807D5
:100D1000F907C0F012161306E407F50798F0621BF6
:100D2000730B840B950B39F40A2661F0232B242BCB
:100D3000252B21F408950A2609F4A140A6958FEFEA
:100D4000811D811D089597F99F6780E870E060E03C
:100D500008959FEF80EC089500240A941616170654
:100D600018060906089500240A941216130614069C
:100D700005060895092E0394000C11F4882352F0FF
:100D8000BB0F40F4BF2B11F460FF04C06F5F7F4FB7
:100D90008F4F9F4F089557FD9058440F551F59F09E
:100DA0005F3F71F04795880F97FB991F61F09F3F58
:100DB00079F087950895121613061406551FF2CF81
:100DC0004695F1DF08C0161617061806991FF1CFD1
:100DD00086957105610508940895E894BB276627F8
:100DE0007727CB0197F9089597FB072E16F4009407
:100DF00006D077FD08D00BD007FC05D03EF49095C7
:100E000081959F4F0895709561957F4F0895AA1B16
:100E1000BB1B51E107C0AA1FBB1FA617B70710F0E5
:100E2000A61BB70B881F991F5A95A9F78095909517
:100E3000BC01CD010895EE0FFF1F0590F491E02D48
:100E4000099410E0C8E2D0E003C0FE01F4DF21966F
:0A0E5000C932D107D1F7F894FFCFA3
:100E5A0001000000017E040301007E020AEF007E09
:100E6A00020CEF007E0306007E031104EF0000006F
:0E0E7A000000C2004F0016012D01A900C100AA
:00000001FF
