:1000000028C04CC005C24AC049C0B8C147C046C09C
:1000100045C044C043C042C075C240C03FC000009C
:10002000000037000000000036000000000038002B
:10003000020202020202020202020102040810206D
:1000400020041008010200000400000000009A02D1
:10005000910211241FBECFE5D1E0DEBFCDBF20E06D
:10006000AEE8B0E001C01D92AC3FB207E1F710E08E
:10007000A0E6B0E0E6E4FBE002C005900D92AE38E9
:10008000B107D9F710E0C8E2D0E003C02197FE0124
:1000900010D4C732D107D1F7F3D249C5B1CFCF922F
:1000A000DF92EF92FF920F931F93CF93DF936C0138
:1000B0007A018B01C0E0D0E0CE15DF0589F0D801D0
:1000C0006D918D01D601ED91FC910190F081E02DB3
:1000D000C6010995892B11F47E0102C02196ECCF4F
:1000E000C701DF91CF911F910F91FF90EF90DF90AB
:1000F000CF90089590E0FC01EC5BFF4F3491FC0140
:10010000E65CFF4F2491FC01E05DFF4FE491EE239C
:1001100039F1332399F0323071F028F4313071F431
:100120008AB58F770AC0333011F0343039F48CB58A
:100130008F7D8CBD03C08AB58F7D8ABDF0E0EE0F48
:10014000FF1FE65DFF4FA591B4918FB7F894EC9136
:10015000611103C020952E2301C02E2B2C938FBF3D
:1001600008952091D2003091D3002817390771F4F7
:100170009091D1008091D000981741F0E091D1008A
:10018000F0E0E057FF4F808190E008958FEF9FEF00
:10019000089508951F93CF93DF93DC015C962D9112
:1001A0003C915D972115310539F481E090E013967B
:1001B0009C938E9312973DC05196ED91FC9152976E
:1001C00050969C915097892F80951FB75E964C91C1
:1001D0005E9741FB772770F941FD6095F894408167
:1001E000772311F0492B01C048234083E90121976F
:1001F000F1F748E0508160FF02C0592B01C058233D
:100200005083E9012197F1F76695415099F77723DB
:1002100021F090818923808303C08081982B908373
:100220001FBF5C968D919C915D970197F1F721E03E
:1002300030E0C901DF91CF911F9108952091D20044
:100240003091D3002817390769F48091D0002091AC
:10025000D10090E0805C9F4F821B910960E470E0C8
:1002600001D3089580E090E008952091D20030916C
:10027000D30028173907B9F49091D1008091D000AC
:10028000981789F0E091D100F0E0E057FF4F8081AE
:100290002091D10030E02F5F3F4F2F733327209301
:1002A000D10090E008958FEF9FEF0895E091D20084
:1002B000F091D300E817F90769F4A389B4899C91F8
:1002C0008589809589238C931092D3001092D20057
:1002D00081E0089580E00895379885B7877E806132
:1002E00085BF85B7806285BF85B7806285BF8895E9
:1002F00085B78F7D85BF85B78F7D85BF379A089578
:10030000009761F0FC0101900020E9F73197AF01FF
:10031000481B590BBC018DED90E0C1CE80E090E010
:1003200008950F931F93CF93DF931F92CDB7DEB73E
:10033000682F85E790E06983E3DF69818DED90E0C8
:1003400029DF8CE890E0DCDFC7DF18E402E007B9C2
:10035000369A3699FECF84B125B190E0922B1816CB
:1003600019061CF4B9DF115091F78AE790E00F905D
:10037000DF91CF911F910F91C3CFA1D21F920F9206
:100380000FB60F9211242F933F938F939F93AF93A8
:10039000BF938091D9009091DA00A091DB00B091D9
:1003A000DC003091D80026E0230F2D3720F4029690
:1003B000A11DB11D05C029E8230F0396A11DB11D84
:1003C0002093D8008093D9009093DA00A093DB00AB
:1003D000B093DC008091D4009091D500A091D6001C
:1003E000B091D7000196A11DB11D8093D4009093C8
:1003F000D500A093D600B093D700BF91AF919F9145
:100400008F913F912F910F900FBE0F901F901895D5
:100410001F920F920FB60F9211242F933F934F9379
:100420005F936F937F938F939F93AF93BF93EF935C
:10043000FF93E091D200F091D300309709F451C0BE
:10044000968DA685B785858591FF04C09C918923EB
:1004500029F447C09C91892309F043C0A389B4893A
:100460009C918589809589238C93868997890197AA
:10047000F1F7608D718DA685B785558538E020E050
:10048000CB010197F1F7822F90E095958795282F62
:100490004C91452309F02068315091F7868D81FDFC
:1004A00020958091D00090E001968F73992730912C
:1004B000D100381749F0A091D000B0E0A057BF4F4D
:1004C0002C938093D00003C0868D8160868F828DAF
:1004D000938D0197F1F7A389B4899C918589892B24
:1004E0008C93FF91EF91BF91AF919F918F917F91ED
:1004F0006F915F914F913F912F910F900FBE0F9091
:100500001F9018951F920F920FB60F9211248F9380
:1005100081E0809360008F910F900FBE0F901F902D
:10052000189589E690E09093DE008093DD008DEDD4
:1005300090E0BCCE0F931F93CF93DF931092E00017
:100540001092DF0088EE93E0A0E0B0E08093E1003D
:100550009093E200A093E300B093E40089E690E07A
:100560009093DE008093DD001092F4001092F3006F
:100570001092F6001092F5001092F8001092F70019
:100580001092FA001092F9006091FB006E7F6D7F6F
:100590006093FB006695617081E06827ABDDEBE35B
:1005A000F0E02491E1E3F0E08491882399F090E079
:1005B000880F991FFC01E25EFF4FA591B491FC01E9
:1005C000E65DFF4F859194918FB7F894EC91E22B03
:1005D000EC938FBFEBE3F0E0E491E093ED00E1E317
:1005E000F0E0E491F0E0EE0FFF1FE65DFF4F859134
:1005F00094919093EF008093EE000AE310E0F801ED
:100600002491C0E3D0E0FE0184918823C9F090E0FA
:10061000880F991FFC01E25EFF4FA591B491865DA2
:100620009F4FFC01459154913FB7F8949C91822FC4
:10063000809598239C93FA019081892380833FBF02
:100640008091FB0081FD03C061E080E053DD1092EA
:10065000E900F80104910093EA00FE01C491EC2F37
:10066000F0E0EE0FFF1FEC5DFF4F859194919093AA
:10067000EC008093EB00DF91CF911F910F910895D3
:1006800078948AB582608ABD8AB581608ABD83B755
:10069000826083BF83B7816083BF89B7826089BF6F
:1006A00080B7826080BF80B7816080BF329A319A04
:1006B0003098379A85B7846885BF479ABA98C29AA6
:1006C0001092F8001092F7001092F6001092F500C8
:1006D0001092F4001092F3008DEC90E09093FA00E9
:1006E0008093F9003091E900353020F545E550E080
:1006F0005093F4004093F3004BEC50E05093F6001D
:100700004093F50040E950E05093F8004093F70023
:100710002BB720622BBF45E350E05093F10040938C
:10072000F00021E001C0220F3A95EAF72093F20091
:100730000197F1F78091F7009091F800892B19F15A
:100740008091D2009091D30020E08D3D9207D9F0A6
:10075000009709F0ABDD8091FB008E7F8093FB005A
:100760001092D0001092D1008DED90E09093D300C4
:100770008093D200E091F000F091F100908180919F
:10078000F200892B80838FE790E0BADD84B7877F02
:1007900084BF81B5886181BD85E181BD81B58064FB
:1007A00081BD9ADD84E890E0ABDD6EE18DED90E0F7
:1007B000F1DC8CE890E0A4DD84B7877F84BF81B54D
:1007C000886181BD83E181BD81B5806481BD84DDA7
:1007D00088E890E095DD80DD8AE790E091DD80E0BB
:1007E00090E0C1D090938F0080938E00BC0180E098
:1007F00090E0611571058105910509F0ABD060911C
:100800008E0070918F006F5F7F4F80E090E0AFD0DF
:1008100085E1882E912CA12CB12C90EC492E92E1EF
:10082000592E612C712C20E3C22ED12CE12CF12CFD
:1008300053DDB29906C08AD0A5019401B8D0862FA5
:1008400070DD84D0A3019201B2D0613071058105C1
:10085000910571F77BD0A7019601A9D085E1860F9C
:1008600060DDE6CF97FB072E16F4009406D077FDE7
:1008700008D00BD007FC05D03EF4909581959F4F92
:100880000895709561957F4F0895AA1BBB1B51E198
:1008900007C0AA1FBB1FA617B70710F0A61BB70BF0
:1008A000881F991F5A95A9F780959095BC01CD0195
:1008B0000895EE0FFF1F0590F491E02D099481E05B
:1008C00090E0F89434C1A0E0B0E0E8E6F4E0AEC017
:1008D000EC01688179818A819B81611571058105AF
:1008E000910521F464E279ED8BE597E02DE133EF9A
:1008F00041E050E05CD049015A0127EA31E440E090
:1009000050E071D069017A01C501B4012CEE34EFD9
:100910004FEF5FEF68D0022F132F9A01D701C60166
:10092000800F911FA21FB31FB7FF03C00197A1093A
:10093000B04888839983AA83BB83BC01CD019F778C
:10094000CDB7DEB7ECE08EC0BEDF089581E690E063
:10095000BADF089560936100709362008093630032
:10096000909364000895A8E1B0E042E005C011D082
:10097000272F10C0DC01862FE82FE199FECF1FBA88
:1009800005C0EEBBE09AE3950DB20D924150C8F759
:100990000895262FE199FECF1CBA1FBA8EBB2DBB3E
:1009A0000FB6F894E29AE19A0FBE01960895052ECB
:1009B00097FB16F400940FD057FD05D068D007FCC4
:1009C00002D046F408C050954095309521953F4F90
:1009D0004F4F5F4F089590958095709561957F4F2B
:1009E0008F4F9F4F089568940013E894A0E0B0E003
:1009F000EBEFF4E01DC0EFEFE7F959016A015E2368
:100A0000550FEE08FE2C87019B01AC019E23990F28
:100A1000660B762FCB015DD0CDB7DEB7EAE024C000
:100A20002F923F924F925F926F927F928F929F92FE
:100A3000AF92BF92CF92DF92EF92FF920F931F93EC
:100A4000CF93DF93CDB7DEB7CA1BDB0B0FB6F8949D
:100A5000DEBF0FBECDBF09942A88398848885F84DD
:100A60006E847D848C849B84AA84B984C884DF804E
:100A7000EE80FD800C811B81AA81B981CE0FD11D32
:100A80000FB6F894DEBF0FBECDBFED010895A1E211
:100A90001A2EAA1BBB1BFD010DC0AA1FBB1FEE1FF8
:100AA000FF1FA217B307E407F50720F0A21BB30B43
:100AB000E40BF50B661F771F881F991F1A9469F7BF
:100AC00060957095809590959B01AC01BD01CF011B
:100AD0000895DF93CF939F92A0E49A2E0024D00133
:100AE000E001F00116950795F794E794D794C79421
:100AF000B794A79448F41068A20FB31FC41FD51F62
:100B0000E61FF71F081E191E220F331F441F551F13
:100B1000661F771F881F991F9A9421F79D01AE01C8
:100B2000BF01C00111249F90CF91DF91089510E083
:100B3000C8E2D0E003C0FE01BCDE2196C932D10775
:060B4000D1F7F894FFCF8D
:100B4600010100000000000000CA004F001E013530
:100B560001B100C9007E040301007E020AEF007E97
:0E0B6600020CEF007E0306007E031104EF0078
:00000001FF
